{
  "_format": "hh-sol-artifact-1",
  "contractName": "Wildpatron",
  "sourceName": "contracts/wildpatron.sol",
  "abi": [
    {
      "inputs": [],
      "stateMutability": "nonpayable",
      "type": "constructor"
    },
    {
      "anonymous": false,
      "inputs": [
        {
          "indexed": false,
          "internalType": "bytes32",
          "name": "animalId",
          "type": "bytes32"
        },
        {
          "indexed": false,
          "internalType": "address",
          "name": "initiator",
          "type": "address"
        }
      ],
      "name": "AnimalAdded",
      "type": "event"
    },
    {
      "anonymous": false,
      "inputs": [
        {
          "indexed": false,
          "internalType": "bytes32",
          "name": "animalId",
          "type": "bytes32"
        },
        {
          "indexed": false,
          "internalType": "address",
          "name": "donor",
          "type": "address"
        },
        {
          "indexed": false,
          "internalType": "uint256",
          "name": "amount",
          "type": "uint256"
        }
      ],
      "name": "FundsDonated",
      "type": "event"
    },
    {
      "anonymous": false,
      "inputs": [
        {
          "indexed": false,
          "internalType": "bytes32",
          "name": "animalId",
          "type": "bytes32"
        },
        {
          "indexed": false,
          "internalType": "address",
          "name": "initiator",
          "type": "address"
        },
        {
          "indexed": false,
          "internalType": "uint256",
          "name": "amount",
          "type": "uint256"
        }
      ],
      "name": "WithdrawFunds",
      "type": "event"
    },
    {
      "inputs": [
        {
          "internalType": "string",
          "name": "title",
          "type": "string"
        },
        {
          "internalType": "string",
          "name": "description",
          "type": "string"
        }
      ],
      "name": "AddAnimal",
      "outputs": [],
      "stateMutability": "nonpayable",
      "type": "function"
    },
    {
      "inputs": [
        {
          "internalType": "bytes32",
          "name": "animalId",
          "type": "bytes32"
        }
      ],
      "name": "WithdrawAnimalFunds",
      "outputs": [],
      "stateMutability": "nonpayable",
      "type": "function"
    },
    {
      "inputs": [],
      "name": "_animalCount",
      "outputs": [
        {
          "internalType": "uint256",
          "name": "_value",
          "type": "uint256"
        }
      ],
      "stateMutability": "view",
      "type": "function"
    },
    {
      "inputs": [
        {
          "internalType": "bytes32",
          "name": "",
          "type": "bytes32"
        }
      ],
      "name": "_animals",
      "outputs": [
        {
          "internalType": "string",
          "name": "title",
          "type": "string"
        },
        {
          "internalType": "string",
          "name": "description",
          "type": "string"
        },
        {
          "internalType": "address",
          "name": "recipient",
          "type": "address"
        },
        {
          "internalType": "uint256",
          "name": "totalRaised",
          "type": "uint256"
        },
        {
          "internalType": "uint256",
          "name": "balance",
          "type": "uint256"
        }
      ],
      "stateMutability": "view",
      "type": "function"
    },
    {
      "inputs": [
        {
          "internalType": "bytes32",
          "name": "animalId",
          "type": "bytes32"
        }
      ],
      "name": "donate",
      "outputs": [],
      "stateMutability": "payable",
      "type": "function"
    },
    {
      "inputs": [
        {
          "internalType": "address",
          "name": "recipient",
          "type": "address"
        },
        {
          "internalType": "string",
          "name": "title",
          "type": "string"
        },
        {
          "internalType": "string",
          "name": "description",
          "type": "string"
        }
      ],
      "name": "generateAnimalId",
      "outputs": [
        {
          "internalType": "bytes32",
          "name": "",
          "type": "bytes32"
        }
      ],
      "stateMutability": "pure",
      "type": "function"
    },
    {
      "inputs": [
        {
          "internalType": "bytes32",
          "name": "animalId",
          "type": "bytes32"
        }
      ],
      "name": "getAnimal",
      "outputs": [
        {
          "components": [
            {
              "internalType": "string",
              "name": "title",
              "type": "string"
            },
            {
              "internalType": "string",
              "name": "description",
              "type": "string"
            },
            {
              "internalType": "address",
              "name": "recipient",
              "type": "address"
            },
            {
              "internalType": "uint256",
              "name": "totalRaised",
              "type": "uint256"
            },
            {
              "internalType": "uint256",
              "name": "balance",
              "type": "uint256"
            }
          ],
          "internalType": "struct Wildpatron.Animal",
          "name": "",
          "type": "tuple"
        }
      ],
      "stateMutability": "view",
      "type": "function"
    },
    {
      "inputs": [
        {
          "internalType": "address",
          "name": "",
          "type": "address"
        },
        {
          "internalType": "bytes32",
          "name": "",
          "type": "bytes32"
        }
      ],
      "name": "userDonations",
      "outputs": [
        {
          "internalType": "uint256",
          "name": "",
          "type": "uint256"
        }
      ],
      "stateMutability": "view",
      "type": "function"
    }
  ],
  "bytecode": "0x608060405234801561001057600080fd5b50610bae806100206000396000f3fe60806040526004361061007b5760003560e01c80637fff36dd1161004e5780637fff36dd14610124578063ac2f896114610155578063af2124be14610182578063c37067fa146101a257600080fd5b8063082e3ab31461008057806319fbf9a1146100a2578063583e1f8f146100cc5780635cd65324146100ec575b600080fd5b34801561008c57600080fd5b506100a061009b36600461088d565b6101b5565b005b3480156100ae57600080fd5b506000546100b99081565b6040519081526020015b60405180910390f35b3480156100d857600080fd5b506100a06100e73660046108f9565b61025a565b3480156100f857600080fd5b506100b961010736600461092e565b600260209081526000928352604080842090915290825290205481565b34801561013057600080fd5b5061014461013f3660046108f9565b6103a2565b6040516100c39594939291906109a5565b34801561016157600080fd5b506101756101703660046108f9565b6104ec565b6040516100c391906109f1565b34801561018e57600080fd5b506100b961019d366004610a5d565b610691565b6100a06101b03660046108f9565b6106d0565b60006101c43386868686610691565b60008181526001602052604090209091506101e08187876107ab565b506101ef6001820185856107ab565b506002810180546001600160a01b0319163317905560006003820181905561021a9080546001019055565b604080518381523360208201527fed3a82db8ba69dbb3aa53b630a65a72bc923bc00e889acd114d887428239077b910160405180910390a1505050505050565b600081815260016020526040902060028101546001600160a01b031633146102b95760405162461bcd60e51b815260206004820152600d60248201526c1b9bdd081c9958da5c1a595b9d609a1b60448201526064015b60405180910390fd5b60008160040154116103045760405162461bcd60e51b81526020600482015260146024820152736e6f2066756e647320746f20776974686472617760601b60448201526064016102b0565b600481018054600091829055600283015460405191926001600160a01b039091169183156108fc0291849190818181858888f1935050505015801561034d573d6000803e3d6000fd5b506002820154604080518581526001600160a01b03909216602083015281018290527f35ec88416fb8c4e0ad0ee0c23a1aa6c0ff90c9426a895aac02f414a62c420e62906060015b60405180910390a1505050565b6001602052600090815260409020805481906103bd90610ade565b80601f01602080910402602001604051908101604052809291908181526020018280546103e990610ade565b80156104365780601f1061040b57610100808354040283529160200191610436565b820191906000526020600020905b81548152906001019060200180831161041957829003601f168201915b50505050509080600101805461044b90610ade565b80601f016020809104026020016040519081016040528092919081815260200182805461047790610ade565b80156104c45780601f10610499576101008083540402835291602001916104c4565b820191906000526020600020905b8154815290600101906020018083116104a757829003601f168201915b505050506002830154600384015460049094015492936001600160a01b039091169290915085565b6105276040518060a00160405280606081526020016060815260200160006001600160a01b0316815260200160008152602001600081525090565b60008281526001602052604090819020815160a0810190925280548290829061054f90610ade565b80601f016020809104026020016040519081016040528092919081815260200182805461057b90610ade565b80156105c85780601f1061059d576101008083540402835291602001916105c8565b820191906000526020600020905b8154815290600101906020018083116105ab57829003601f168201915b505050505081526020016001820180546105e190610ade565b80601f016020809104026020016040519081016040528092919081815260200182805461060d90610ade565b801561065a5780601f1061062f5761010080835404028352916020019161065a565b820191906000526020600020905b81548152906001019060200180831161063d57829003601f168201915b505050918352505060028201546001600160a01b031660208201526003820154604082015260049091015460609091015292915050565b600080858585858a6040516020016106ad959493929190610b19565b60408051808303601f190181529190528051602090910120979650505050505050565b6000818152600160205260409020348061071e5760405162461bcd60e51b815260206004820152600f60248201526e57726f6e67204554482076616c756560881b60448201526064016102b0565b808260030160008282546107329190610b52565b925050819055508082600401600082825461074d9190610b52565b909155505033600081815260026020908152604080832087845282529182902084905581518681529081019290925281018290527f54689524e07569c0ca87254312902d6ad3511bf3d0bb30dc6a1f67ae4e3bb53a90606001610395565b8280546107b790610ade565b90600052602060002090601f0160209004810192826107d9576000855561081f565b82601f106107f25782800160ff1982351617855561081f565b8280016001018555821561081f579182015b8281111561081f578235825591602001919060010190610804565b5061082b92915061082f565b5090565b5b8082111561082b5760008155600101610830565b60008083601f84011261085657600080fd5b50813567ffffffffffffffff81111561086e57600080fd5b60208301915083602082850101111561088657600080fd5b9250929050565b600080600080604085870312156108a357600080fd5b843567ffffffffffffffff808211156108bb57600080fd5b6108c788838901610844565b909650945060208701359150808211156108e057600080fd5b506108ed87828801610844565b95989497509550505050565b60006020828403121561090b57600080fd5b5035919050565b80356001600160a01b038116811461092957600080fd5b919050565b6000806040838503121561094157600080fd5b61094a83610912565b946020939093013593505050565b6000815180845260005b8181101561097e57602081850181015186830182015201610962565b81811115610990576000602083870101525b50601f01601f19169290920160200192915050565b60a0815260006109b860a0830188610958565b82810360208401526109ca8188610958565b6001600160a01b039690961660408401525050606081019290925260809091015292915050565b602081526000825160a06020840152610a0d60c0840182610958565b90506020840151601f19848303016040850152610a2a8282610958565b91505060018060a01b03604085015116606084015260608401516080840152608084015160a08401528091505092915050565b600080600080600060608688031215610a7557600080fd5b610a7e86610912565b9450602086013567ffffffffffffffff80821115610a9b57600080fd5b610aa789838a01610844565b90965094506040880135915080821115610ac057600080fd5b50610acd88828901610844565b969995985093965092949392505050565b600181811c90821680610af257607f821691505b60208210811415610b1357634e487b7160e01b600052602260045260246000fd5b50919050565b848682376000858201600081528486823760609390931b6bffffffffffffffffffffffff19169290930191825250601401949350505050565b60008219821115610b7357634e487b7160e01b600052601160045260246000fd5b50019056fea2646970667358221220b7b72e7db84216df079c538cccaf1f58cdaafe7a602e118116f3441425e0acb264736f6c63430008090033",
  "linkReferences": {},
  "deployedLinkReferences": {}
}